:100000000C9434000C9451000C9451000C94510049
:100010000C9451000C9451000C9451000C9451001C
:100020000C9451000C9451000C9451000C9451000C
:100030000C9451000C9451000C94C6010C94510086
:100040000C9451000C9451000C9451000C945100EC
:100050000C9451000C9451000C9451000C945100DC
:100060000C9451000C94510011241FBECFEFD8E026
:10007000DEBFCDBF11E0A0E0B1E0ECE7F7E002C0E9
:1000800005900D92AA36B107D9F723E0AAE6B1E0B0
:1000900001C01D92AB37B207E1F70E94AA030C948E
:1000A000BC030C94000087B18F6087B988B1807F52
:1000B00088B9089588B1807F88B90895803118F48F
:1000C00098B1982B98B908950E9418028CE30E9469
:1000D000240280E00E94240280E70E94240280EA39
:1000E0000E94240280E00E9424020C942002CF93FC
:1000F000DF93EC010E9418028CE30E94240283E04B
:100100000E9424020E9418028DE30E9424020E9491
:100110002E02188289830E942E0228813981282B81
:100120008E819F81280F391F288339830E942E02D8
:100130001C828D830E942E022C813D81282B8A8572
:100140009B85280F391F2C833D830E942E021A8223
:100150008B830E942E022A813B81282B88859985DA
:10016000280F391F2A833B83DF91CF910C94200203
:10017000CF92DF92EF92FF920F931F93CF93DF9373
:1001800000D00F92CDB7DEB72CE631E0A901440FC5
:10019000551FB90198E08A010E531E4F41515E4F21
:1001A000DB016901892FEBEFFE2EF90EF982F601D2
:1001B00080839D968C939D977801EA1AFB0AF7013C
:1001C00080837A01EC18FD08F70180838150F2E307
:1001D000CF0ED11CD296E9808E11E9CF91502B5FC2
:1001E0003F4F655071099330D9F60F900F900F90E3
:1001F000DF91CF911F910F91FF90EF90DF90CF9003
:10020000089589EF87BD82E084BD83E085BDEEE679
:10021000F0E0808182608083789487E0E0E0F1E024
:10022000A8E6B3E001900D928A95E1F78BB1806F5B
:100230008BB9E0916903F0916A03608180916B034F
:1002400021E030E0A90101C0440F8A95EAF7842F2C
:1002500040916E03D90101C0AA0F4A95EAF78A2B93
:10026000862B808387E0E7E0F1E0A1E6B3E0019030
:100270000D928A95E1F785B18F6085B9E0916203AF
:10028000F0916303408180916403B90101C0660F5E
:100290008A95EAF7862F9091670301C0220F9A95FD
:1002A000EAF7822B842B80830895853008F080E064
:1002B000809360030895FC018081823079F1D8F445
:1002C000A181B28181111AC02C91458181E090E019
:1002D000BC0101C0660F4A95EAF7262B2C93A18139
:1002E000B2812C91368101C0880F3A95EAF780954A
:1002F00082238C930895833019F108952C914481C1
:1003000081E090E0BC0101C0660F4A95EAF7262B18
:100310002C93A181B2812C913381E5CFA181B2814F
:100320002C91468181E090E0BC0101C0660F4A95A6
:10033000EAF7262B2C93A181B2812C913581D3CF62
:10034000A181B2812C91438181E090E0BC0101C088
:10035000660F4A95EAF7262B2C93A181B2812C9146
:100360003481C1CFFC0190819F5F943008F090E010
:100370009083CF010C945B01FC01908191509430EB
:1003800008F093E09083CF010C945B011F920F92D1
:100390000FB60F9211242F933F934F935F936F9358
:1003A0007F938F939F93AF93BF93EF93FF9380912E
:1003B0006003833079F1A8F48130D1F0823009F103
:1003C000FF91EF91BF91AF919F918F917F916F912D
:1003D0005F914F913F912F910F900FBE0F901F9003
:1003E0001895843069F788E693E00E94BC010DC03F
:1003F00088E693E00E94BC0181E693E00E94B2018E
:10040000DFCF88E693E00E94B20181E693E00E948C
:10041000BC01D6CF88E693E00E94B201EDCF88E41C
:100420008093B8001092B90084E08093BC000895D6
:1004300084EA8093BC008091BC0087FFFCCF0895C4
:1004400084E98093BC0008958093BB0084E8809386
:10045000BC008091BC0087FFFCCF089584EC8093A2
:10046000BC008091BC0087FFFCCF8091BB00089549
:1004700084E88093BC008091BC0087FFFCCF809112
:10048000BB000895CF93DF9300D00F92CDB7DEB7B6
:1004900089836A834B830E94180289810E94240207
:1004A0008A810E9424028B810E94240284E9809325
:1004B000BC000F900F900F90DF91CF9108951F9384
:1004C000CF93DF9300D000D0CDB7DEB752988BE248
:1004D0008093790310927A0382E0809378031092DC
:1004E000770385E2809375031092760324E02093CE
:1004F000740310927303809371031092720385E06A
:100500008093700310926F035A9A6EE071E06B83D0
:100510007C83CB0169839A831DE20E94180282E5E5
:100520000E94240280E00E942402812F0E94240263
:10053000E981FA818191E983FA830E9424020E9471
:1005400020021F5F183849F7E0917903F0917A0390
:1005500040818091780321E030E0B90101C0660F4D
:100560008A95EAF7862F809584238083E09175032E
:10057000F091760380819091740301C0220F9A95C7
:10058000EAF7822B80838EE091E089839A831DE2D3
:100590000E94180282E50E94240280E00E94240248
:1005A000812F0E942402E981FA818191E983FA83F3
:1005B0000E9424020E9420021F5F183849F7E09130
:1005C0007503F091760340818091740321E030E05F
:1005D000B90101C0660F8A95EAF7862F80958423BA
:1005E0008083E0917103F091720380819091700398
:1005F00001C0220F9A95EAF7822B80831DE20E94A8
:10060000180282E50E94240280E00E942402812FC9
:100610000E942402EB81FC818191EB83FC830E9488
:1006200024020E9420021F5F183849F7E0917103ED
:10063000F091720320813091700381E001C0880F36
:100640003A95EAF78095822380830F900F900F9060
:100650000F90DF91CF911F9108950F931F93CF9328
:10066000DF9300D00F92CDB7DEB78A839B83DC0186
:100670001296ED91FD91808113979C9121E001C02C
:10068000220F9A95EAF7822B80830E94180282E556
:100690000E94240280E00E94240287E80E94240233
:1006A00080E40E9424020E9420024A99FECF0E9408
:1006B000180282E50E94240280E00E94240286E95A
:1006C0000E9424020E94180283E50E9424020E94D4
:1006D0002E02082F0E94380289830E9420020E9465
:1006E000180282E50E94240280E00E94240286E82B
:1006F0000E94240281E00E9424020E9420020E94A3
:10070000180282E50E94240280E00E94240287E809
:100710000E94240280E00E9424020E942002AA81FA
:10072000BB811296ED91FD91808113979C9121E000
:1007300001C0220F9A95EAF720952823208329816A
:10074000302FC9010F900F900F90DF91CF911F9123
:100750000F9108950E94530081E00E945E000E9464
:10076000B8000E940F020E9401010E9464000E94D2
:0C0770005F020E945A00FFCFF894FFCFF8
:10077C00002B000405060700250000010203000100
:10078C00011102000208000810010100000000FF26
:10079C00000F0000000000200B0000020A210000E6
:1007AC000500000000C8000038FF0100080000012F
:1007BC00CC0F01F10D0168008008B8000000000F9B
:1007CC008900000000000000010F0D0E0E00000259
:0A07DC00C7FF9B00000001000000B1
:00000001FF
